:1000860041540041542B43434944004154490041E3
:1000960054453056310041542B4950523D39363083
:1000A600300041542B4350494E3F0041542B43539B
:1000B60051004154480041542B434F50533F004197
:1000C600542B43444E534F5249503D300041542B1C
:1000D600434950484541443D310041542B43495022
:1000E60053544152543D22544350222C2231323330
:1000F6002E3133382E32322E3732222C22383038F7
:1001060030220041542B43495053544152543D220E
:10011600544350222C220041542B43495053454E00
:10012600440041542B434950434C4F5345004154DE
:100136002B434950534855540041542B434950537F
:1001460054415455530041544100415444313332D3
:1001560035393831393035383B0041542B434D471A
:10016600463D310041542B434D47533D22313332F6
:100176003539373932313238220041542B434D4715
:10018600523D310041542B434D47443D312C340000
:100196002020204556423930302D5631202020204F
:1001A60020204750532F475052532F47534D20205E
:1001B60020205354726F6E67204574632E2E2E20B6
:1001C6006D637565702E74616F62616F2E636F6DFE
:1001D600002020B0D7C8D5D2C0C9BDBEA1A3AC20CF
:1001E600202020D3FBC7EEC7A7C0EFC4BFA3AC2017
:1001F600202020BBC6BAD3C8EBBAA3C1F7A1A3205F
:10020600202020B8FCC9CFD2BBB2E3C2A5A1A3204F
:1002160020000000000000000000000000000000B8
:1002260000000000000000000000000000000000C8
:1002360000000000000000000000000000000000B8
:1002460000000000000000000000000000000000A8
:100256000000000000000000000000000000000098
:10026600000000000007FC00000000000000000085
:100276000000000000FFFFE000000000000000009A
:100286000000000007FFFFFC000000000000000067
:10029600000000003FFFFFFF01F1300000000000FA
:1002A60000000000FFF000FFC0E330000000000087
:1002B60000000001FF00001FF043300000000000B6
:1002C60000000007F8000003F843F00000000000FB
:1002D6000000000FC0000000FC42D000000000003B
:1002E6000000001F800000003E42D0000000000019
:1002F6000000003E000000001FC2D0000000000009
:100306000000007C000000000FC00000000000009C
:10031600000000F800FC100007C00000000000000C
:10032600000001F003FFF00001E000000000000003
:10033600000001E007C3F00001F00000000000002B
:10034600000003C01F81E00000F000000000000074
:10035600000007801F00E000007C00000000000095
:10036600000007803F00E000003C000000000000A5
:1003760000000F003F006000003E0000000000008B
:1003860000001F003F00601FFC1E00000000000070
:1003960000001E003F8040783C1F00000000000067
:1003A60000001E003F8000F01C0F0000000000004F
:1003B60000003C003FC001E00C0F00000000000000
:1003C60000003C001FC003C0080F800000000C00A6
:1003D60000003C001FE007C00803810007001F0063
:1003E6000C00380007F00F80000381FFFF001F009C
:1003F6000C00780007F80F800003818387003DC05A
:100406000C00780003FC1F000003818307003CE01A
:100416000C00780001FC1F0000038183070030797F
:100426000C00780000FE1F000003C1838700603BBC
:100436008C007800007F3E000003C1FFFF00E01142
:100446008C007800007F3E000003C1838700C00354
:100456008C007802003F3E00000381830701FFE124
:100466008C007802003F3E00000381830703E0E131
:100476008C003802001F3E0000038183070360E3FF
:100486008C003C06001F3E00000381C7CF0060C100
:100496008C003C07001F3E00000F81C8070060C1AA
:1004A6008C003C07001F3E00000F0180020060E147
:1004B6008C001E07803E1E00400F0003000060C334
:1004C6008C001E07C03C1F00C01F0071C1806FC199
:1004D6008C001E0FE0F80F01801E0271C1C0638000
:1004E6000C000F0FFFF007E7003E0630ECE0601847
:1004F6000C000780038003FC003E0630C4E0601851
:100506000C00078000000000007C0E300E606018B2
:100516000C0003C00000000000F01E300E00601842
:100526000C0003E00000000001F00C389F007FF88B
:10053600FC0001F00000000003E0003FFE00024066
:10054600380000F80000000007C0000000000000AE
:100556000000007C000000000F800000000000008A
:100566000000003E000000001F80000000000000A8
:100576000000001F800000003E0000000000000098
:100586000000000FC0000000FC000000000000009A
:1005960000000007F8000003F8000000000000005B
:1005A60000000001FF00001FF00000000000000036
:1005B60000000000FFF000FFC00000000000000087
:1005C600000000003FFFFFFF0000000000000000E9
:1005D6000000000007FFFFFC000000000000000014
:1005E6000000000000FFFFE0000000000000000027
:1005F600000000000007FC000000000000000000F2
:1006060000000000000000000000000000000000E4
:100616000000FFFFF0DB7F7FFFFED999000000009E
:1006260000007FFFFE728FFFFFFFFF7600000000D5
:100636000000FFFFFCCFFFFFFFFFF9DC000000001A
:1006460000003C80FCF3BFFFFFFFFE7300000000CC
:100656000000FFFF3F7E7FFFFFFFFFCF000000008F
:1006660000000000F39BFFFFFFFFFFF80000000003
:1006760000001FFFF0B3FFFFFFFFFFFA00000000BE
:100686000000033F3B6FFFFFFFFFFFFD0000000080
:10069600000000004E7FFFFFFFFFFFFEC0000000CE
:1006A6000000000078DFFFFFFFFFFFFF40000000B3
:1006B60000000000B3BFFFFFFFFFFFFFA000000028
:1006C60000000000B7FFFFFFFFFFFFFFA0000000D4
:1006D60000000000A4FFFFFFFFFFFFFFE000000097
:1006E6000000000025FFFFFFFFFFFFFFE000000006
:1006F60000000000ABFFFFFFFFFFFFFFF000000060
:1007060000000000AFFFFFDBFFEDFFFFF000000081
:10071600000000009FFFFFBBFFF5FFFFF000000099
:1007260000000000FFFFFFC6FFDDFFFFF80000002E
:10073600000000006FFFFF7FFFFBBFFFF800000017
:1007460000000000AFFFFFE7FFCBFFFFFC0000004B
:1007560000000000BFFFFE0FFFBE5FFFFC000000B1
:10076600000000005FFFFFDFFF7EFFFFFE000000CE
:10077600000000007FFFFF7FFF7FBFFFFE0000003D
:1007860000000000BFFFFF6FFFF6BFFFFF00000085
:1007960000000000BFFFFE4FFF7FBFFFFE0000000E
:1007A60000000000BFFFFFBFFFB6DFFFFF00000035
:1007B60000000000FFFFFF57FFDD3FFFFF000000C6
:1007C600000000007FFFFFFB7F6FBFFFFF00000000
:1007D600000000007FFFFF65FFBCFFFFFF00000079
:1007E600000000007FFFFF99FFDD7FFFFF00000094
:1007F60000000000FFFFFFC7FFE5FFFFFF0000004E
:1008060000000000FFFFFFFFFFFFFFFFFF000000EB
:1008160000000001FFFFFFFFFFFFFFFFFF000000DA
:1008260000000003FFFFFFF7FF13FFFFFFEF0000CD
:1008360000000002FFFFFEE701FFFFFFFFED0000E3
:1008460000000002FFFFFF3EFF239FFFFFF60000B0
:1008560000000001FFFFCEFFFFEFFFFFFFF60000E5
:1008660000000003FFFFF9C3F0FE3F7FFFED00002D
:1008760000000003FFFF9FBFF87BF99FFFFD00000C
:1008860000000017DFFFFD99EF8D6EFFFFFD0000F2
:1008960000000017FFFFDE67C37BFDFFFFFA0000C5
:1008A6000000000FFFFFFFFD38C7BFFFFFF4000089
:1008B6000000000EF7FFFFEFC37FFFFFFFF400000D
:1008C6000000001FFFFFFFF93FCFFFFFFEF800000B
:1008D60000000027FB7FFFFFFFFFFFFFDDF80000A2
:1008E6000000006FFFFFFFFFFFFFFFFEFBE80000B9
:1008F600000000DF7EFFFFFFFFFFFFFFFFFC0000A1
:100906000000007FBFFBFFFFFFFFFFFFFFFC0000B3
:100916000000077FDFCDFFFFFFFFFFFBF7FC0000B6
:10092600000002FFF7FFFFFFFFFFFFEFEFFC0000F5
:1009360000000DFFF798717FFFFFF77FFFFE0000B5
:1009460000000FFFFEB2FEFBFFFFFEFFFFFE0000F2
:1009560000000BFFFD73E3FFFFE37FFEFFFFF000E8
:100966000000B7FFFF9B7FF8E38FC4FFFFFFB000D7
:100976000000BFFFFFFDCE3FCFFC7F6FFFFF900063
:100986000000DFFFFDF667E7E08FCEFEFFFFD00039
:1009960000009FFFF7FFFB037CFCDBFDFFFFE00091
:1009A60000007FFFF2BFDEFCFEFF77F37FFFF00063
:1009B6000000BFFFFABFFF07C383FFCE5FFFD00073
:1009C6000000BFFFE67BFF7E7FFFFE70DFFFF000CB
:1009D6000000FFFFF5FF7FFFC7FFFFDFEFFFF0001F
:1009E60000007FFFD5FDDFFFFFFFD9C4BFFFF0008A
:1009F6000000FFFFDFFB7FFFFFFF777B37FFF00085
:100A06000000FFFFEBFE7DE7FFFE8CCEA7FFF000A8
:100A1600000057656C636F6D6521006D63756570C9
:100A26002E74616F62616F2E636F6D0047505320A5
:100A360054455354004C41543A004C473A004E4FEB
:100A46005F4D4F44554C5F4C494E4B212100CEC063
:100A5600D0C7B6A8CEBBCAB5D1E900CAB1BCE43A84
:100A660000BEADB6C83A00CEB3B6C83A00CEC2B6DE
:100A7600C8BFD8D6C6CAB5D1E900CEC2B6C8C9CF96
:100A8600CFDE3A00CEC2B6C8CFC2CFDE3A00B5B18D
:100A9600C7B0CEC2B6C83A003031323334353637F5
:0B0AA600383941424344454600A1E6B8
:1017C80041005D004102A700410060004102110094
:1017D80001092801081941000600410043004100A1
:1017E8005E0041005F004102100041005C004101C1
:0217F800D3001C
:101A9B0075A4C0E4F5A7F5AE75E10175E24075E3F9
:021AAB00012216
:0D1AFE00758840758920758E08758D302221
:101ABF0075981075B41E75B5FB75D21075AC4322B1
:10000300E4FFFE75B28375B9800FBF00010EEF6484
:0F001300144E70F543B9C0E5B930E5FB75A9038C
:0100220022BB
:071B230075E70275A890228E
:101AAD0053D9BF121AFE121ABF121A9B120003024B
:021ABD001B23E9
:101792007F607EEA1217AB7F607EEA1217AB7F6032
:0917A2007EEA1217AB7F607EEABB
:1017AB00E4FDD3EF9400EE9400400DE4FC0CBC7D03
:0C17BB00FCEF1F70ED1E80EA0DBD0CE677
:0117C70022FF
:1019E700E4FEEEC39F5011E4FDFC0DBD00010CBCED
:0819F70009F8BD60F50E80EA5D
:0119FF0022C5
:041A0000AB07AA0680
:101A0400900000C3E5829BE5839A50087F0A12196F
:041A1400E7A380EFD5
:011A180022AB
:0C1B0B00C2AF8F993099FDC299D2AF2271
:0C1B1700C2A61217927F607EEA0217AB94
:0F1ACF007F46900061E4F0A3DFFCE4900211F089
:011ADE0022E5
:0F1ADF007F649000A7E4F0A3DFFCE4900211F015
:011AEE0022D5
:10147200121ACF7BFF7A0079861219CB7F107E2752
:101482001217AB0538900067E0644F7049A3E0641F
:101492004B7043121ACF7BFF7A0079891219CB7FE6
:1014A200107E271217AB7F0B74612FF582E4340094
:1014B200F583E0FE74D92FF582E43401F583EEF072
:1014C2000FBF1FE4C2A57F147E00121A00D2A57FAF
:1014D2001E7E00021A00E538D3940F40931216E1E3
:1014E2007BFF7A0A7944753E0F7D01E4FF12154EA7
:0314F20012179935
:0114F50022D4
:06171D008B128A138914EF
:10172300E4FFEFC3942C748094815026AB12AA1368
:10173300A9148F82758300120F9BB44012EFF582B8
:10174300758300A3120F9BB43A05EF2402FF220F07
:0417530080D07F00C3
:01175700226F
:1019CB00120F82FF600C121B0B740129F9E43AFA17
:0C19DB0080EE7F0D121B0B7F0A021B0B1D
:10185B00E49002A8F09002A8E0C39D5016120F82EC
:10186B00FF121B0B740129F9E43AFA9002A8E00469
:0D187B00F080E27F0D121B0B7F0A021B0B99
:10190100E49002A9F09002A9E0C39D5016120F8243
:10191100FF121B0B740129F9E43AFA9002A9E004C1
:03192100F080E271
:0119240022A0
:101A8800C2AFD2838FD3E5D230E1FB53D2FDD2AFC0
:031A9800C28322E4
:1018DB0012182B7F647E001219B07F331215A3E40C
:1018EB00F538121628740A2538F8A6070538E53896
:0518FB00C3940840ED5C
:0119000022C4
:10102B0078357C007D007BFF7A0A79AF7E007F02EA
:10103B00120F5C121AAD121B1712147212166712D2
:10104B001A51121A51121A51753BFF753C0A753D14
:10105B00187B08E4FD7F03121758753BFF753C0A9C
:10106B00753D217B107D01E4FF12175812179975FE
:10107B003BFF753C0A753D9E7B107D01E4FF12170B
:10108B00581217991215E87E027F18121288121740
:10109B00921214F67FC87E001218117E017F9612F1
:1010AB0000261217921216E17FC87E001218117ECD
:1010BB00017FD71200261217921216E11218DB7B52
:1010CB00FF7A0A7973753E0CE4FD7F0112154E7B96
:1010DB00FF7A0A7980753E0A7D01E4FF12154E7B7B
:1010EB00FF7A0A798A753E0A7D02E4FF12154E7B60
:1010FB00FF7A0A7994753E0A7D03E4FF12154EE5DB
:10110B000975F00A842430F52AE50975F00A84E59F
:10111B00F02430F52B85352C85362DE50875F00A36
:10112B00842430F52EE50875F00A84E5F02430F5BB
:10113B002F8535308536317B007A00792A753E0450
:10114B007D017F0512154E7B007A00792E753E04CA
:10115B007D027F0512154E1211CB8E228F237C0040
:10116B007D64120FC88F32E5322430F524AE22AFE6
:10117B00237C007D0A120FC8E53275F00AA4FEC36A
:10118B00EF9EF5332430F52575262EE53275F06488
:10119B00A4FEC3E5239EFFE53375F00AA4FEC3EF5F
:1011AB009EF5342430F5278535288536297B007A42
:1011BB00007924753E067D037F0512154E0210CA79
:030023000216A51D
:1016A500C0E0C083C082C0D075D018C2AF30981FCB
:1016B500900211E0FF2461F582E43400F583E59999
:1016C500F0EF900211B44604E4F08003E004F0C2A8
:0C16D50098D2AFD0D0D082D083D0E032C9
:0300830002133B2A
:0B133B00C0E0C083C082C0D075D01895
:10134600C2AFE5D220E0030213DBAFD3BF2408907F
:10135600005E7401F0807B90005FE06401704A904B
:101366000000E06447703DA3E064507037A3E0647A
:10137600527031A3E0644D702BA3E0B44326900075
:1013860043E02407F582E43400F583EFF090004350
:10139600E004F0E0B43C12E4F090005FF09002103C
:1013A60004F0800590005FE4F090005EE0B4012256
:1013B600900006E02400F582E43400F583EFF09017
:1013C6000006E004F0E0B40509E4F090005EF0A346
:0713D60004F053D2FED2AF78
:0913DD00D0D0D082D083D0E032E0
:051A6000D282121A659C
:0E1A65007F647E00EF1FAC0670011E4C70F611
:011A73002250
:071A4A00E4FC7F38121925AE
:0E1A51007FB07E15EF1FAC0670011E4C70F6C4
:011A5F002264
:101A19007D05AC051DEC60107E1C7F65EF1FAA06D5
:081A290070011E4A60EC80F41C
:011A31002292
:10194900C294C293C282C294C293D282C294D293E5
:10195900D282D294D293121A60AF90C294C293C227
:0119690082FB
:01196A00225A
:1018B2007590FFC294C293C282C294D293C282D262
:1018C20094D293C282121A65121A65E59020E7FB40
:0818D200AF90C294C293C282E0
:0118DA0022EB
:10196B00AD071218B28D90C294C293C282C294C2B8
:10197B0093D282D294C293121A60C294C293C2823F
:01198B002239
:10192500AB07ED4C60031218B28B90C294C293C200
:1019350082D294C293C282121A65121A65C294C2E7
:0419450093C28222A5
:10166700E4F590121A51121A51121A51121A51E432
:10167700FD121A4B121A4A121A4A0D7C007F3812B1
:1016870019257C007F081219257C007F0112192576
:0E1697007C007F061219257C007F0C021925AD
:10198C00AE07AA0353050153060FED60034306404F
:10199C00430680AF06E4FDFC121925AF0202196B59
:061758008F388D398B3A39
:10175E0053390153380FE4F53EE53EC3953A502315
:10176E00E538940F5019AB3BAA3CA93D853E8275D6
:10177E008300120F9BFBAD39AF3812198C0538055B
:03178E003E80D6C4
:011791002235
:1017FB007F647E00121811D2957F057E001218119E
:06180B00C2967F057E007D
:10181100EF1FAA0670011E4A600FE4FDEDC394FAA2
:0918210050EE000000000D80F300
:01182A00229B
:0D188800D2967F0A7E00121811C2017F3037
:10189500AC07C293A20192827F017E001218118CBF
:0D18A50090D2947F017E00121811C294228F
:1014F6001217FB1218887F6412188C7F1E7E00124A
:101506001811C2017F081218957F647E0012181107
:10151600C2017F101218957F647E00121811C20155
:101526007F0C1218957F647E00121811C2017F018C
:101536001218957F0A7E00121811C2017F06121832
:08154600957F647E000218117C
:1015E8001217FBD29612180DC2017F361218957F7A
:1015F800647E00121811C2017F361218957F147E7E
:1016080000121811C2017F3E1218957F647E0012E5
:101618001811C2017F011218957F647E000218110B
:040026008E388F3948
:10002A00C2017F801218957FC87E00121811E4FB66
:10003A00853982853883E493FFD2011218950539F0
:10004A00E539700205380BBB20E6C2017F90121811
:10005A00957F647E001218117B208539828538834A
:10006A00E493FFD2011218950539E5397002053873
:04007A000BBB40E696
:01007E00225F
:1016E1001217FB1218887F6412188C7F1E7E00125D
:1016F1001811C2017F0C1218957F647E0012181117
:10170100C2017F011218957F0A7E00121811D201C1
:0C1711007F061218957F647E00021811FC
:06154E008B3B8A3C893D45
:10155400ED7005753F808016BD0105753F90800EC6
:10156400BD0205753F888006BD0303753F98EF25CE
:101574003FF53FC201FF121895E4F540E540C395DD
:101584003E501BAB3B053DE53DAA3C7002053C14B7
:0E159400F9120F82FFD201121895054080DE79
:0115A2002226
:041288008E388F39D4
:10128C00E4F53AF53BE53B2480FFC201121895C208
:10129C00017F80121895E4F53CF53D85398285383F
:1012AC0083E493FFD2011218950539E539700205D4
:1012BC0038053DE53D7002053CC39410E53C648067
:1012CC00948040D7053BE53B7002053AC39420E57A
:1012DC003A6480948040AEE4F53AF53BE53B2480DB
:1012EC00FFC201121895C2017F88121895E4F53CD3
:1012FC00F53D853982853883E493FFD20112189528
:10130C000539E53970020538053DE53D7002053CAF
:10131C00C39410E53C6480948040D7053BE53B705A
:0E132C0002053AC39420E53A6480948040AEF6
:01133A002290
:0419AC007F017E0039
:1019B000EF4E601600000000000000000000000074
:0B19C000000000EF1F70E91E80E6220F
:10182B001200007FD37E011219B01200007F0F7ED1
:10183B00001219B07FC87E001219B0A2B7E433FDB5
:0F184B00E4FC7F0F7E001219B00CBC1EF5AF0538
:01185A00226B
:0215A3008F3D7A
:1015A500C2AF1200001219AC7F0A7E001219B07585
:1015B5003E081200007F0F7E001219B0E53D30E0B5
:1015C500031200007F327E001219B0120000E53DC3
:1015D500C313F53D1219AC153EE53ED3940050D228
:0215E500D2AF83
:0115E70022E1
:10162800E4F53EC2AF1200001219AC753D08120075
:10163800007F057E001219B01200001219ACE53EB9
:10164800C313F53E30B703433E807F3C7E0012193A
:0E165800B0153DE53DD3940050D4D2AFAF3E67
:011666002261
:101A74007F01BF010512182B80F87FCC1215A37FBC
:041A8400440215A360
:101A32007FB41215A37F647E001219B030B704D2AE
:081A4200008002C200A2002294
:0F1AEF007F01BF010512182B80F87FCC0215A3D1
:1011CB00E4F538FFF53CF53BF53AF539121A741294
:1011DB001AEF7FBE1215A31216288F38121628EF9E
:1011EB00FE7C00E42538FDEC3EFCE4120DD28F3C76
:1011FB008E3B8D3A8C397F007EFF7D7F7C47AB3CED
:10120B00AA3BA93AA839120D4F70057EFF7FFF222A
:10121B00E4FFFEFD7C47AB3CAA3BA93AA839120D73
:10122B004F603B4039AF3CAE3BAD3AAC39120DBCD5
:10123B008F3C8E3B8D3A8C39E4FFFE7DA07C40AB1E
:10124B003CAA3BA93AA839120BA9E4FBFAF978415D
:10125B00120CB2E4FBFAF97847120AB8801BE4FFD0
:10126B00FE7DA07C40AB3CAA3BA93AA839120BA946
:0C127B00E4FBFAF97841120CB2120E0BE1
:011287002244
:100AB100020E77E86480F8E933E83360110460F0EE
:100AC100ED33EC337009E8FCE9FDEAFEEBFF2204AB
:100AD10060DED3EB9FEA9EE99DE8C2E78CF0C2F7A6
:100AE10095F0400CE8CCF8E9CDF9EACEFAEBCFFB72
:100AF100120E4285D0F05804700320D5B3E804707B
:100B0100075002B2D5020E8192D5EC0460F7E4CC15
:100B1100C0E0C398F8603B94186008400DD0E0FB3A
:100B2100020E59E4FBFAC9FC8028E830E406E4C966
:100B3100FBE4CAFCE830E305E4C9CACBFCE854078E
:100B41006010F8C3E913F9EA13FAEB13FBEC13FC99
:100B5100D8F130F52FC3E49CFCEF9BFFEE9AFEED3C
:100B610099FDD0E0FBEF4E4D4C701222DB03020EDB
:100B71007EEC2CFCEF33FFEE33FEED33FDED30E781
:100B8100EB020E59EF2BFFEE3AFEED39FDD0E0FB03
:100B910050130BBB0003020E81ED13FDEE13FEEFAC
:080BA10013FFEC13FC020E59D6
:100BA900EC4D6011E8497017ED33EC3304600DE446
:100BB900FCFFFEFD22E933E8330470F8020E7712D8
:100BC9000E4258046009E4CC2481500628500902D9
:100BD9000E81284003020E7EC0E0EB4A7044B980C2
:100BE90006D0E0FB020E6DEF4E701CBD8008EBFFD6
:100BF900EAFEE9FD80EBE98DF0A4FEE5F0020C9236
:100C0900E9CDF9EAFEEBFFEF89F0A4FCE5F0CE8926
:100C1900F0A42EFFE435F0CD89F0A42DFEE435F0E3
:100C29008067EF4E7005BD80D780C3EF8BF0A4AC11
:100C3900F0EE8BF0A42CFCE435F0F8EF8AF0A42C4C
:100C4900E5F038FCE433CB8DF0A42CFCE5F03BF85F
:100C5900EE8AF0A42CFCE5F038F8E433CF89F0A44F
:100C69002CFCE5F038CF3400CE89F0A42FFFE5F055
:100C79003EFEE433C98DF0A42EFEE5F039CD8AF0AD
:100C8900A42FFFE5F03EFEE43DFD33D0E0FB500725
:100C99000BBB000F020E81EC2CFCEF33FFEE33FE91
:060CA900ED33FD020E59BF
:100CAF00020E81EC5D046005E859047003020E77B3
:100CBF00120E42580460F6EC4860F2EC7004FDFE30
:100CCF00FF22C860DB2481C85009C3986002500618
:100CDF00020E7E9850CAF582E9294B4A7005AB8205
:100CEF00020E6D75F0007C1A7880C3EF9BEE9AEDC3
:100CFF0099400DC3EF9BFFEE9AFEED99FDE842F090
:100D0F00DC23ACF0D0E0FFD0E0FED0E0FDAB8220E2
:100D1F00E7101BEB60BAEC2CFCEF33FFEE33FEED6C
:100D2F0033FD020E59E803F830E705C0F075F00007
:100D3F00EF2FFFEE33FEED33FD40B830E7C280AA50
:100D4F0074F8CC6480CCC86480C8F582046043C357
:100D5F00EB9FF5F0EA9E42F0E99D42F0E89C45F0EA
:100D6F0060305018E5825FFFE582F42B5582FB500F
:100D7F00210ABA001D09B90019088016E5825BFB2C
:100D8F00E582F42F5582FF50090EBE00050DBD0000
:100D9F00010CC3EB9FF5F0EA9E42F0E99D42F0E8AB
:0D0DAF009C45F06007CC4820E701B3EC2222
:100DBC00ED33EC33600A047003BD8004ECB2E7FC45
:010DCC002204
:100DCD0075F020800E75F010800575F0087D007EA1
:100DDD00007F003392D530D50312101DEC33401037
:100DED00EF33FFEE33FEED33FDEC33FCD5F0ED22AA
:0E0DFD00E5F0247EA2D513CC92E7CDCEFF22E6
:100E0B00EDD2E7CD33EC3392D524814006E4FFFEDF
:100E1B00FDFC22FCE4CFCECDCC24E0501174FF803E
:100E2B00EDC3CC13CCCD13CDCE13CECF13CF0470DB
:070E3B00F030D5DE02101DAE
:100E4200E9D2E7C933E833F892D5EDD2E7CD33ECF6
:070E520033FC5002B2D5226F
:100E5900EC30E7100FBF000C0EBE00080DBD0004FA
:100E69000BEB6014A2D5EB13FCED92E7FD2274FFA6
:100E7900FCFDFEFF22E480F8A2D574FF13FC7D80FF
:030E8900E480EF13
:030000000213E602
:0C13E600787FE4F6D8FD75814002142DDC
:100E8C00E709F608DFFA8046E709F208DFFA803E48
:100E9C0088828C83E709F0A3DFFA8032E309F60835
:100EAC00DFFA8078E309F208DFFA807088828C839D
:100EBC00E309F0A3DFFA806489828A83E0A3F60851
:100ECC00DFFA805889828A83E0A3F208DFFA804C2B
:100EDC0080D280FA80C680D4806980F28033801002
:100EEC0080A680EA809A80A880DA80E280CA80336B
:100EFC0089828A83ECFAE493A3C8C582C8CCC583E3
:100F0C00CCF0A3C8C582C8CCC583CCDFE9DEE780B2
:100F1C000D89828A83E493A3F608DFF9ECFAA9F031
:100F2C00EDFB2289828A83ECFAE0A3C8C582C8CC87
:100F3C00C583CCF0A3C8C582C8CCC583CCDFEADEA0
:100F4C00E880DB89828A83E493A3F208DFF980CC02
:100F5C0088F0EF60010E4E60C388F0ED2402B404FB
:100F6C000050B9F582EB2402B4040050AF232345A2
:060F7C008223900EDC73DD
:100F8200BB010689828A83E0225002E722BBFE026D
:090F9200E32289828A83E49322A0
:100F9B00BB010CE58229F582E5833AF583E022500B
:100FAB0006E92582F8E622BBFE06E92582F8E22255
:0D0FBB00E58229F582E5833AF583E493226F
:100FC800BC000BBE0029EF8DF084FFADF022E4CC0D
:100FD800F875F008EF2FFFEE33FEEC33FCEE9DECD6
:100FE800984005FCEE9DFE0FD5F0E9E4CEFD22ED1C
:100FF800F8F5F0EE8420D21CFEADF075F008EF2F66
:10100800FFED33FD4007985006D5F0F222C398FD56
:051018000FD5F0EA22F3
:0E101D00C3E49FFFE49EFEE49DFDE49CFC22E4
:1013F20002102BE493A3F8E493A34003F68001F2D6
:1014020008DFF48029E493A3F85407240CC8C333FB
:10141200C4540F4420C8834004F456800146F6DFCA
:10142200E4800B01020408102040809017C8E47E7B
:10143200019360BCA3FF543F30E509541FFEE493BF
:10144200A360010ECF54C025E060A840B8E493A386
:10145200FAE493A3F8E493A3C8C582C8CAC583CAB1
:10146200F0A3C8C582C8CAC583CADFE9DEE780BE69
:0117FA0000EE
:00000001FF
